:20000000003A012095F8010039FB021039FB021039FB021039FB021039FB021039FB021053
:1C00200039FB021039FB021039FB021039FB021039FB021039FB021011FB021002
:20004000BA492DE9F04F0446B74ADFF8E8920E68A578507800279046ADF1540D29460C29B1
:2000600007D9DFF8CCB2DFF8D0A2203933290FD94FE3DFE811F069055A0544052905090519
:20008000F304EF04D904C3044E03B604B2049204DFE811F07F047B04770467046304E8027A
:2000A0004D042B04AD0283023F033F033F033F033F033F030704EC03CF03B403550299038A
:2000C0003402FC013F033F033F033F033F033F03E801B5019C013F03880379017F037303E6
:2000E000660354012A01E50062035E035403C000440382004103670046003400E1788DF889
:200100002A7031F07F0006D011F07F0F0CBF381C0120CA49087053210DF12A0300F0EABC40
:2001200008F1110332203946012225F0E7FD08F1120333203946012225F0E0FDC84898F830
:2001400011100078012905D04FF400611EF0FAFC00F0FDBC4FF40061642226F045F900F048
:20016000F6BC8DF82B7078B9E41C204625F0FCFF0546A01C0446083025F0F6FF02462146C4
:20018000284623F08AFF00E012208DF82B0051210DF12B0300F0AEBCE01C25F0E5FFE51CA5
:2001A000AE784FF6FF748DF80A600546ADF80850AC4218D0E01EA84215D0A01EA84212D0FD
:2001C00002208DF80C00ADF80E5003A81BF08AFD012818BF4FF001090CD1BDF80E00ADF89E
:2001E0000800012000E038468DF80B0002A81DF0C9FB8146E41EAC4204DC012088F82A000B
:2002000088F82B6021F01EFD8DF82C904F210BAB00F070BC20798DF82E00E078012814D073
:20022000022809D0032805D052200DF12E0124F0C7F80FE03C4600E0012452200DF12E0134
:2002400021F040FD88F8004004E052200DF12E0121F038FD4D210DF12E0300F04BBCE178DA
:2002600038465EB13279914205D1F2880DEB4003401CC0B21A813668002EF3D18DF830003A
:200280009DF83000012404EB4000C0B2054619F0B7FE5FEA000806D18DF8307049212246AB
:2002A0000CAB00F028BC02469DF8300002F8010B38469DF8301081420ADC652049212A4645
:2002C000434621F017FF404621F09CFB00F03FBC0DEB400108310B7813700988401CC0B27E
:2002E00009125170921CE4E7301CE4788DF8317013D03E4601798C420BD11EB905680B49B8
:200300000D6002E001683160056821F07BFB284601E0064600680028ECD11BF04BFE0DF166
:2003200031034721E6E3C0469C5D002088640020DF730020E45C0020F6590020E01C10F8E8
:20034000014B25F011FF0146C5480068224650B13E4603799A4202D1C388994205D0064611
:2003600000680028F5D1012008E006B9BC4E0168316021F047FB1BF01DFE38468DF83200AD
:200380000DF13203CDE739460DF12200062207911BF06EFCE01C07A924F05EFD8DF82200E0
:2003A000079870B101888DF8231046888DF8256009128DF8241031128DF8261000798DF894
:2003C0002700432106220DF1220394E364788DF8377048B1012805D002281CBF01208DF826
:2003E000370004D1022000E004200EF0EDF924F01F04202C40F0AB830DF1370379E320460C
:2004000090F80180C01C25F0AFFE59460A7849468E6856B13C4633799A4202D1F388984256
:2004200005D034463668002EF5D101200EE03CB9346804B93C468C6004E0C046485A002064
:2004400030682060304621F0DDFA384628F01F088DF83800B8F1200F40F079830EAB48E3C4
:20046000BC59002020464478C01C25F07DFE0146584600781FF0A6FE24F01F048DF83900B4
:20048000202C40F064830DF1390332E3E41C204625F06AFEA41CADF8080014F8010B04211D
:2004A0008DF81000204624F0F4FD0646201D10F8019B10F8018B25F057FE044631464A46C0
:2004C000434602A800941DF04FF98DF83A009DF810000F280FD1022053468DF81000188895
:2004E00031464A46ADF80800434602A800941DF03BF98DF83A000DF13A036BE220782646F5
:20050000042806F1030614BF16F8010B02208DF81000304625F028FED34CADF80800B01CC2
:20052000012610F8011B2670027802A81EF086FE8DF83B000DF13B03277032464BE20220CA
:20054000E41C8DF81000204625F00EFE4E46A11CADF808000C7A706825F06AFF7168C4F315
:20056000400804F00104B8F1010F0F7204D17268107A40F040001072012C03D1087A40F022
:2005800080000872484602A9342209231EF0E0FE0DF13D038DF83D00ABE20226E41C8DF880
:2005A0001060204625F0E0FDA41CADF80800204625F0DAFDA278804602A84146144624F035
:2005C00013FF8DF845009DF810000F280CD1504600888DF8106041462246ADF8080002A82D
:2005E00024F002FF8DF845000DF14503F2E10226E41C8DF81060204625F0B6FDA41CADF853
:20060000080014F8010B8DF84700204625F0ACFDA41C14F8019B804602A90DF14700424624
:2006200000944B46019720F0DDFF8DF846009DF810000F2811D1504600888DF810603E46F1
:2006400002A94246ADF808004B4600940DF14700019620F0C7FF8DF846000DF1460348E2A7
:2006600088640020A946E51CA878B846FE280BD1E878FF2808D12078082805DB284625F0D3
:2006800073FD294623F050FF284608A924F07EFF041C0ED1182019F0B3FC5FEA000807D052
:2006A000BDF8200039461822434625F027FB00B1C824192019F0A4FC061C20D05CB9701CBA
:2006C0002946082225F02EF806F109004146102225F028F804E0701CFF2118221BF0C8FAC1
:2006E0003470652049461922334621F003FD3046394619221BF0BCFA304621F083F9B8F1E0
:20070000000F00F024824046394618221BF0B0FAD9E502271BE21BF0DBFE18E2E01C25F06D
:2007200023FDE51C0246A81C10F8011B1CF0C2F94E210DF12D038DF82D00DBE18DF82F7072
:2007400025F08CF80DF12F034C218DF82F00D1E120461BF083FEFAE120461EF03FF8F6E1AE
:20076000E01C25F001FD6179A2791DF040F946210DF133038DF83300BCE1E01C25F0F4FC3E
:200780006179A27911F01CFE45210DAB8DF83400B0E1E01C11F05CFC44210DF135038DF86C
:2007A0003500A7E1E01C25F0DFFCE51CA91C0B4608310A4619461FF041F842210DF13603AF
:2007C0008DF8360096E10220E41C8DF81000204625F0CAFC4E46A11CADF808000C7A706893
:2007E00025F026FE706802A935220923047248461EF0AEFD0FAB8DF83C00EBE00220E41C95
:200800008DF81000204625F0AFFCADF80800A0780DF13F0602A933228DF83F000123009697
:200820004846019720F0DEFE0DF13E038DF83E005FE10220E41C8DF81000204625F094FCA2
:20084000ADF80800A0780DF1410602A932228DF84100012300964846019720F0C3FE10AB5D
:200860008DF8400045E1C046486300200220E41C8DF81000204625F077FCADF80800A07852
:200880000DF1430602A931228DF84300012300964846019720F0A6FE0DF142038DF84200AD
:2008A00027E10220E41C8DF81000204625F05CFCA41CADF808000421204624F0EAFB4E4621
:2008C000221D014612F8018B7068137824F01EFF02A900F8018B30220370484606231EF0AF
:2008E00037FD11AB8DF8440003E10126E41C8DF84860601C25F038FC814604F10B0025F066
:2009000033FC804694F800A0637BA07B22F048FA0093E01C49465246434613F009FD12AB64
:200920008D498DF84800042025F04EFC05E60126E41C04218DF84960204624F0AAFB217973
:200940001EF0A0F885498DF84900022025F03CFC83490DF149030320E6E720461AF096FDDD
:20096000F5E0E41C204625F0FFFBA11C0B4608310A4619461EF062FF0DF14A038DF84A00AE
:20098000B7E020461AF0DDF8E1E020461AF096F8DDE020460FF0AAFFD9E0E01C25F0E4FB48
:2009A0004E464FF6FD740F22ADF8084071688DF8102002230412152201F8010B48460C70C0
:2009C00002A9B7701EF0C4FC39468DF84B000DF14B03B170012229468DE0204618F0D8FC7A
:2009E000B5E0E41C204625F0BFFBA11C0A7A3B4621F012FF13AB8DF84C00EBE70220E41CC6
:200A00008DF81000204625F0AFFBADF80800A01C25F0AAFB0146112202A824F0E5FC0DF1E2
:200A20004D038DF84D0064E00220E41C8DF81000204625F099FBADF80800A01C25F094FB7D
:200A40000146102202A824F0CFFC0DF14E038DF84E004EE020460FF0A5FA78E00220E41CC6
:200A60008DF81000204625F07FFBADF80800A01C25F07AFB0146052202A824F0B5FC0DF11E
:200A80004F038DF84F0034E00220E41C8DF81000204625F069FBA41CADF80800204625F09E
:200AA00063FB4E467268A1781070726803125370706803230422817002A948461EF048FC7F
:200AC00014AB8DF8500014E00220E41C8DF81000204625F049FBADF80800A01C25F044FB5B
:200AE0000146032202A824F07FFC0DF151038DF8510029460122652021F0FCFA27E00226DC
:200B0000E41C8DF81060204625F02EFBADF80800A01C25F029FB0146324602A824F064FCBD
:200B20000DF152038DF85200E3E7E41C204625F01BFBA41C14F8011B227822F065F90DF140
:200B400053038DF85300D4E7204617F041F9384615B0BDE8F08FC046C9260200E745020079
:200B6000055201002DE9F04F04464FF6FE70ADF15C0DADF854009B4840784FF000080228BF
:200B800012D19848007878B92089002807BF30204146102001210EF0FFFF8DF85680522060
:200BA0000DF1560121F08EF86068217A08AA12F09FFB002800F0A1849DF822000228B4BF07
:200BC000012747469DF824000228A8BF4746BDF82A104FF6F87088420ED04FF6FE70401F33
:200BE000884209D04FF6FE70001F884204D04FF6FE70C01E884200D1474625F07FFA9DF806
:200C00002310884240F07984002F00F0768475484078022804D19DF85100002840F06D84EE
:200C2000208D9DF82660678EADF84C00ADF82E7056B161689DF821209DF83C30012024F0E7
:200C4000B9FD002840F059849DF82570DFF85C92DFF85CA24646002F49D19DF83D004746B1
:200C600058BBBDF82A00034620F06CFE4546022808BF0125002D9DF8225018BF012749465B
:200C80000988994208BF47F0020727B1002D14BF402120210F43184620F054FE012808BF65
:200CA00047F00107002D3BD01298007825F061F8012818BF27F0010732E09DF8411041B124
:200CC000FF2906D09DF84000119A22F04FF850B126E05246BDF82A10508F884205D092F8A7
:200CE0004A0004281CD101261AE0222718E0BDF82A10FF2022F0DCFF002804BF3D1C0827C1
:200D000008D09DF8250047F001052C2740F001008DF8250005F00305012D08BF47F0110795
:200D200030489DF82650407830F0010005D107F002010E4308BF47F08007DFF8B0C295B91A
:200D400061460E787EB107F0220122290BD007F04201422940F0D18312990978062918BF9C
:200D6000072940F0CA83F9094FEAA7155AD3BDF82A20129948B96046C01C0078800804D39E
:200D80000878401E0A282FD909E00878C01E01282AD9001F28D0C01E26D0801E24D0B8F1A2
:200DA000000F21D148460088904240F0A6830D780520BDF82C408DF8110004A823F00CFFC6
:200DC000002800F09A830269032313271370511C0F704C7022128A70CD70448009F038FA8E
:200DE0008BE3C0469C5D002068081BD30878032802D148780D2815D09DF8280038B1BDF855
:200E00002C000E990CF064FF012800F072839DF8270038B1BDF82A000D990CF059FF0128EB
:200E200000F0648309F10E00B4F844100088884209D1CDF80080208DB4F8421094F84620C5
:200E400043460AF0BDFF9DF82600002849D0208DB4F8421020F070FC061C2BD19DF851002C
:200E600090B99AF8900001283BD112980078062801D1680835D2BDF82E104FF6F870C01DBC
:200E8000884240F0AD8038E3042023F0FFFD011C00F033836420087001274F70208D4880C2
:200EA0009AF800001FF0B2FB27E3C046F6590020BC5900209DF821106068F3780A18527B48
:200EC0009A4203D0F27040467060606840180421401C24F0DEF87168814200F20E83401CA5
:200EE0007060A3484078022800F06A8230F0010040F003839AF832008008C0F0FE829DF891
:200F0000510058B1BDF82C0024F0C3FB002800F0F4826168487800F0DF0048709DF832005F
:200F200038B161688879401E8871C0B28DF8320008B907F07F07380924D39DF82500F9084D
:200F40004FF4805814D279091AD3811011F0070F01F0070604D0072E1CBF761EF6B20EB994
:200F600007F07F0700F0E30040EA8600C0B205E020F01C00C11021F0030108438DF8250013
:200F8000616808729AF84A00042800F0E081092800F0DD8117F0610F40F0EC809DF822006C
:200FA000012811D112980078052800F0D98003280AD1BDF82A0024F06CFB28B1218D08A8F7
:200FC00015AA002301F086FB9DF8320080B99DF82200012804D112980078032800F08D82BC
:200FE00008A821461EF0DAFC87E2C046EB59002024F0A9F8002840F080829DF83D0000281A
:201000006DD19DF82400BDF82A10FD100028ADF854102ED13A0930D29DF82220012A28D06E
:20102000084600211BF0EAFB002620B14079012816D0022814D0BDF85400B4F8441020F06B
:201040007BFB28B1807823F054FD08B1082807DBBDF82C0024F01DFB18B104208DF8240077
:201060000126BDF82A10002E08BF022272D09DF824006A0838BF002300D340230DF13D0247
:201080001BF0F6FB30B16168087848F0200800F03F0008709DF83D0040B1BDF82A1010A8B9
:2010A00020F030FC48F04008ADF854009DF82200012806D0BDF82A00BDF82C10002217F0CC
:2010C000BBFE68082CBF40220022BDF82C10BDF82A0014F0C7FF08B148F0200833E09DF81D
:2010E00040009DF84110119A21F040FE00282ED09DF8410038B9BDF82A00ADF8540025F0F6
:2011000037F900BB1DE011999DF8286001EB400030F8020C002EADF854000CBF0821102172
:201120009DF8270008B10831C9B29DF82500002200B1012266688918491CCAB2905D401E3B
:20114000905548F0400823F0BDFA81469AE0BDF82A100B22BDF82C0000231BF0CFF8CCE180
:20116000218D08A815AA002301F0B4FAC5E1C0469C5D002078084FF000095DD39DF833000B
:20118000B4F828B0C24D494616901E20EA79169B934206D1BDF82C302A88934201D1AE78F9
:2011A0002EB9401E05F1080501F10101EED11E2921D0AE79E6B1BAF84810584622F03EFE48
:2011C00008B1761EAE71C84833210279FF2A02D00288934504D0491E00F12400F5D102E06F
:2011E000A879401EA871A8794828A4BF4E46AE7127F0600720E023F065FA81469DF8320032
:2012000020B9208DBDF82C10884215D0218D08A84A4610F0BDFC58B1380932BFBDF82A00E7
:201220004FF6F870C01D48F00408ADF8540003E027F020074FF00009B8094FEAA71510D3E5
:2012400094F8460094F8476094F948308DF81000E26B8DF8116004A98DF8123008A804F094
:2012600057FF68080ED3218D08A815AA4B4601F031FA5FEA000905D012980078012808BFC4
:2012800048F01008BDF854104FF6FE70884208BF4FF000099C48C07E01282BD1618E4FF6DE
:2012A000F870C01D884225D0218D884222D0BDF82A204FF6F870401C90421BDDBDF82C000D
:2012C000884217D025F054F8A0B10179012918BF02290FD101218DF810104088ADF81C00D5
:2012E00004A81EF02FFE28B105A81EF0CBF908B120F0A8FC37F07F0000F0FF80B9F1000F74
:2013000000F0FB80208918F07BFE071C00F0F5806168228924F006FA002605969DF82200B0
:201320008DF81000CDF80090CDF8048004AD0296BDF854100395228D237A384614F018FC9E
:20134000002800F0DA80384620F05CFBD5E04946BDF82A00098881420AD020F0F3FA0228BE
:2013600006D09DF8250000F00300012840F0C5809DF8220090B112980178042904D19DF89A
:201380003C10022900F08A800078072803D19DF83C1004297ED0032875D0AEE094F8460035
:2013A0008DF8100094F847708DF8117094F948608DF81260E26B08A804A904F0A9FE9CE062
:2013C0009AF84A00042818BF092840F09680B80969D212986908C0F090800178042903D166
:2013E0009DF83C10022959D00178072903D19DF83C20042A4ED0032945D00C297DD1401CDE
:20140000414A10F8014B0578174601215120D21CFD7024F02DFF3A4801263B4606705F796D
:20142000384844B9002F14BF4EF660244FF47A7450F8270003E0203000684EF660244443DB
:2014400003204146B4FBF0F44FF480400EF0A4FB9AF8000002211DF075FB680808D2A80883
:201460004BD39AF800000221224624F0BAFF44E04FF48040214616F001FC4FF48040314659
:201480000EF08AFB39E008A8002112F05DFD34E0441C002008A81AF0F9F92EE0002008A964
:2014A0000BF02AFD29E094F8460094F847709DF832508DF8100094F948608DF81170012DD7
:2014C0008DF812607FF476AF208DBDF82C1088427FF470AFBDF82A0020F034FA022808BF75
:2014E0008DF8328066E7C0462C2A0020BDF82A0001E0BDF82C001EF02DFF17B0BDE8F08F26
:20150000D45A0020087E02009C5D00202DE9F04FC14DC24CDFF808A3C44E88465FEA184068
:20152000ADF11C0D80F09E826F78DFF8F892DFF8F8B25FEA580080F01B82384630F001003E
:2015400040F091805FEA980058D25FEA981044D25FEAD830C0F087800120022122F054FE88
:20156000C5B20DB3E80018F04BFD071C1DD0C04C82464FF0010933262079012818BF0228B3
:201580000DD18DF804906088ADF8100001A81EF0D9FC20B102A9504624F04AFF8246761E60
:2015A00004F12404E8D100E0002797B175B10F204FF6FC768DF80C001F24ADF8046001A973
:2015C0002A463B46C248009416F0A2F8384620F019FA88F4804000F007BC207A38B9207829
:2015E000062802D1072024F015F923F005FCE07910211DF03DFD88F02000F5E3207AE8B911
:201600002178E079082917D123F0ACFD092024F001F9BF480078052806D0072809D107201A
:20162000012105F089FF04E0012022F0DDFE1CF07FFB23F0E1FB13E010210FE024F058FD28
:20164000EF2803DB002022F0CFFE09E024F050FD1030C0B224F05EFDE07901211DF008FD9E
:2016600088F00200C0E3CE48CE4B0668B3F900005FEA581180F04E815FEA181028BF88F043
:20168000080080F0B1835FEA582080F0D1805FEAD80080F0B78037F001001CD15FEAD8100E
:2016A00019D32069A0B117F08FFA20690768206920F0A8F927615FB1FA8802E0F888801A8C
:2016C000F8803F68002FF9D1E079402124F08CFE88F0400088E35FEA182064D25FEA9820BF
:2016E0005CD2C84C5FEA18302CD25FEAD82027D3142018F085FC071C1FD0002524342E461E
:20170000207A012812D10097042029463246142320F02AFF50B9206838606068294614227B
:201720003B467860042021F0A7FC26726D1C0C34C82DE5DB384620F065F988F4806053E3E4
:20174000002051E3182018F05BFC071C23D000252E46207A012812D10097062029463246A5
:20176000182320F001FF50B9206838616068294618223B467861062021F07EFC26726D1C57
:201780000C34032DE5DB3846314618221AF070FA384620F037F988F4006025E319F026FCA9
:2017A00088F4007020E31CF0C3FA207805281DD1E07904211DF0C6F9E07904211CF0EAFD03
:2017C000062024F027F8687830F0010007D15046007800F00700022801D024F06BFB20F04D
:2017E00031FA19F003FC1EF0C5FC01E020F02AFA012021F01FFF0320012105F09DFE88F035
:201800008000F1E2FF20032121F056F924F088FCC24901200860FEE79C5D0020205C00200C
:20182000A8720020BC590020F05D0020A47200204A4692F84A00082818BF042845D1243293
:201840002120742124F014FDBF4E6878716832880024B146A2423DDC30F001002DD1044C86
:20186000FF25002694F82100802822D102E0C0462C2A00206788ADF8067023798DF8083015
:20188000A1798DF80A1062798DF809202088ADF80400E77984F82150237D8DF80B70A769B8
:2018A0008DF80C3031461022032001AB049721F0E3FB761C2434332ED4DBBB48006800B14F
:2018C00080470020022121F0F7F888F480708BE2E45C0020A30003EBC403CF5C37F07F0C90
:2018E00013D017F07F07CF540B4405D101A8FF210C221AF0BDF901AB012021460C2221F006
:20190000BBFB6878D9F804103288641CA4B2A1E71A5F0020B0F1FF3F37465C4602D1B848CA
:201920000078A0805FB17968087818B1486800781BF0A8F93F68002FF5D1B4F90400B0F113
:20194000FF3F02D0C0B21BF09DF924F0DDFBBD49088023F0ABFE687C012806D14C46207820
:201960004FF40061642224F03FFD88F010003BE2012023F04FFF3046677801793546122248
:2019800001F0070A11F0070F16D1022F0CD0012F12D1082023F03EFF24F08CFA0BE0C04624
:2019A000A8630020F45D0020082023F033FF0020014612F0A3FE0246BAF1010F18BFBAF18F
:2019C000020F45D107B3032F1ED0012F40D1BAF1010F3DD10A2023F01DFF4C4620784FF436
:2019E00080611DF0AFF8502005A922F0E9FCBDF81400A4F84800BDF81400002119F038FB6A
:201A00002DE0C046603E002024F02CFA002818BF032F16D1022023F0FDFEB449E0680978AD
:201A20001DF030F80246A879000911D28AB959464878401CC0B20428487004BFB848E060C5
:201A400006E024F04CFC0146012012F057FE02462AB1E07901214FF47A7224F0C5FC88F06B
:201A60000100C1E1DFF8C0B2B5E10646AD4A33782778116868781A46521E00F08781521EC6
:201A800000F09480183A00F0A081B93A00F099812A3A00F083801B1F77D05B1E6ED05B1EDA
:201AA00054D05B1E3CD05B1E2CD05B1E40F0908120BB707FDBF8109000BBB9F1000F06F1A6
:201AC000050A1BD0BAF1000F18D04F46B81C5146082223F0E1F818B9FF68002FF6D104E042
:201AE00038461EF0DBF9DBF81090B9F1000F05D19BF800004FF400611DF024F8304623F09B
:201B00009BF965E1012818BF022840F06181307916F0E0FD20F096F85AE1C0467C05204360
:201B2000002840F055813079012800F05181022806D0042840F04C81304618F027FE47E1EF
:201B4000304613F03FFC43E1C4630020012840F03F817088002840F03B81301D01A921F039
:201B6000A1FB012840F0348124F0CEFAADF80C00361D029601A816F0D9FF29E1002840F05A
:201B80002781304613F084F822E1012818BF022840F01E81304609F0E7F819E1002900F04B
:201BA00017813046884713E134620020012818BF022840F00D81584680795E46072818BF75
:201BC000082805D1237A1BB9012105F0B5FC2778032F00F08D800A2F14D0042F18D00D2F84
:201BE00016D00E2F14D00C2F12D0002F00F0F0801EF0C0FAE07910211DF03AFAE8E0C046D1
:201C0000DF7300207E48007800F0070001286FD0277A6078002F32D10020E0720746F770E4
:201C20001FF0BEFC80B96878022803D1082001210DF0B2FF052023F0EDFD42F2107023F0E3
:201C4000CBF8C5E03C5C0020062023F0E3FD68480078000904D34FF4004001210DF09CFF06
:201C6000687830F0010007D16648007900F00700022801D024F01EF91EF07CFAA8E0E17AE0
:201C800001280BD003281ED1687802281BD1594900260E7001270320677113E0491CC8B2F5
:201CA0000428E07204DB54480078012809D00AE0524800884FF6FF7181421CBF0426A67210
:201CC000E8D10020607021F075FD20F099FF48480078000902D3287D012879D1607803282F
:201CE00076D1082001210DF057FF71E0455F0020207A002848D1E07910211DF0B9F91FF0B8
:201D00004FFC98B96878022803D1082001210DF043FF052023F07EFD012020F013F857E09A
:201D200000F8FF07D45F0020145F00206F78207837F001070AD10A2808D13149097801F03F
:201D40000701022902D02B4A0821117003280BD11EF010FAB079022806D1012021F06AFC7E
:201D60000220012105F0E8FB062023F053FD687830F001002CD12248007800F007000228BD
:201D800026D024F097F823E00020C6E7022F1FD1012818BF02281BD124F02EFA28B114F08A
:201DA000FDFAA8B16878022808D024F055FA00280CBF0020012020F005FB09E01AF036F928
:201DC00006E0304605F05CFD02E0304607F04CFD069822F071FFE0791DF01CF90028069068
:201DE0007FF443AE88F4004007B0BDE8F08FC046AA720020065A00208C5F0020045A00209D
:201E0000A8720020A4720020B84A2DE9F04F0846ADF14C0D11780F90000C80F03084924686
:201E2000B34D0F9A6878920B80F0FF83022813D10F9A520810D39AF850000F2807D19AF813
:201E40004A0020B1012802D0002020F0CBF90F9880F0010000F033BC0F9A920980F01A8330
:201E6000DFF89492DFF8948230F0010740F0B8820F9A520980F039820F99C90980F0C0818C
:201E80009C490F9F0A78390A80F0AB813946490A40D23946090B28D20F999AF80370490BDC
:201EA00019D20F99C90BC0F09B824C46A06A70B1297D01290BD18047E06A00B180479AF86A
:201EC00000004FF480414FF47A7224F08AFA0F9880F48040F3E327B100208AF803001FF0FA
:201EE000D7FA0F9880F48050E9E31FF0D1FA687C01280BD1A97C49B19AF800004FF47A72B7
:201F000012FB01F24FF4006124F06BFA384680F40060D4E324F0F8F84FF6FE7B834500F021
:201F20005C819AF832008008C0F0578100263446304622F07DF9071C19D03879012816D086
:201F4000022814D0F879411CF9719AF88B1081420DDABC727C72388821F0F4FA388801A91F
:201F600022F0E2FA01A81DF08DFB1FF06BFE761C332EDDDBA8F11C0614275D46119436F8A6
:201F80001C0F85420CD0307B9AF88B40411C8442317305DA1198B0747074308821F0D2FA7F
:201FA0007F1EECD14C46032104F13C0010F8047F0FB17F1E0770491EF8D1B04C332605F106
:201FC000010934F8240F81451FD001208DF804006788ADF8107001A81DF0B4FFA8B1A8F1CA
:201FE0001C05142735F81C0F2188814208D0BDF80610814204D002A8A91C23F09DFA10B1AD
:20200000284623F01EFB7F1EECD1761ED9D1119D2C46284622F00CF948B1077937F004073E
:2020200005D1807A22F065FD08B1641CE4B26D1C332DEEDB22F08AFC119E5FEA00080ED065
:202040003546284621F010FF28B1807C22F051FD08B1761CF6B26D1CEDB2A845F1DCA019B4
:20206000C7B2002F4CD0B80017F0CAFF1090002808BF119F46D0BA00FF2119F0F9FD119E37
:202080003546B44218DD284622F0D2F8031C10D0187930F004000CD1987A22F02AFD011C97
:2020A00007D0009718885A7A109B18F08DFD761CF6B26D1C332DE4DBB8F1000F22D0119CC8
:2020C000204621F0D1FE061C0AD0B07C22F011FD011C05D00097109B3088727C18F074FD1F
:2020E000641CE4B2A045EBDC0CE0C046BC5900209C5D0020C6620020D45A00209C1E00206E
:20210000119810909AF83000002808BF4FF0620805D023F043FBC0F154005FFA80F80320FD
:20212000B8F1600F98FBF0FAA8BF4FF01F0ADDF84090ABF1020BB8F1000F0EBF119D202575
:20214000DDF84480BA45A6BF3C1C45F040055446032014FB00F0801C8DF8050001A822F013
:202160003BFD4E46031C26D01869082104F01F02017045EA02014170801CA4B12246C01E34
:20218000361F16F8041F00F8031F318809124170B17801F0070CF178521E01F0070141EAF0
:2021A0000C118170EDD1A3F802B001209876184608F04EF800E00120E90906D2641EE4B258
:2021C0000CB109EB84093F1BFFB205F040052843B1D0109808B11FF015FC0F9880F4807004
:2021E0006DE2104306D1A948C178012902D100218170C1701EF072F9384680F080005EE2D5
:20220000A34C1E2600214FF006084FF00409A778002F43D07F1EFBB26079A37023F062F9CC
:20222000071C3AD06BB9787B022808BF87F80D8033D087F80D803868407BF0211EF086FF4F
:202240002BE0A3791BB9787B032812D025E023791BB3E078401EC3B2E370F3B99AF8250033
:20226000E0702079401EC3B22371787B032814D133B9204639461FF005FC0EE0082A0020EA
:2022800087F80D9024F02BF800F00F00401C38819AF8000020211CF0EBFE0121761E04F164
:2022A0000804B4D19AF80000012910D040211CF049FC95F82A00012813D1002085F82A00B4
:2022C00095F82B0016F006FA1FF0BCFC09E040211FF078FB28B99AF800004021642224F03F
:2022E00080F80F9880F04000E9E1084610211FF069FB30B99AF8000010214FF47A7224F064
:2023000070F8BB48DFF8EC82417808F2AC54491ECFB217BB012141700020052122F02CFE4B
:20232000071C1BD006253846052122F025FE0646388978B1401E80B2388158B97889C00832
:2023400002D3387B21F0E6F87D733868407BF0211EF0FCFE371CE6D100E0477064274FF631
:20236000FE7600252079A0B1FF2812D0401E2071C0B270B96079032805D1608821880222B8
:202380001CF06CF86079012803D0268066806571A5717F1E04F10804E4D108F15A040827A7
:2023A000207A401E2072C0B230B9C648214621F0E9F990B9668025707F1E04F10A04EFD1AC
:2023C000C14AC82112F8080F08B1401E1070491EF8D10F9880F0100071E11EF051FBE4E783
:2023E0004C460F992778890834D20F992289890A12D20F99C90A38BF0020C0F06081022856
:2024000001D119F013FEBAF84800012118F030FE0F9880F4806052E1BAF8485004F1080108
:202420005020AAF848201FF04DFC2689142744466089854205D0864204D0204623F001F9C2
:2024400000E066817F1E04F11C04F1D10F9880F4007034E16FB9BAF83E10012020F0BAFC92
:20246000687802280DD19AF8000001211CF06AFB07E001A823F080FF23F034FE01A91CF032
:202480003FFD0F9880F0020019E1C046503E0020441C0020084620211FF094FA28B9DAF8DA
:2024A0001000002808BF012616D024F05DF9044623F006FE4FF47A716043B0FBF1F1DAF815
:2024C0001000002808BF002004D088428CBF4FF0FF30081A460865D00020042122F04CFD41
:2024E000071C5FD0FF254FF0FF3B06244FF001093846042122F040FD10903889864204D883
:20250000801B83B23B8113B149E000203881BB7B012B02D17889C0083BD3002B36D08DF8A7
:2025200004508DF805508DF806B03968086AC97F02AA10F0DDFE4FF00008012808BFC8460B
:202540005FEA08001DD0788A40F08000ADF83600B87B8DF838007889000908D3BDF83600F0
:2025600040F48070ADF83600387B8DF83A007B6913B1187BADF8180001A9002202A803F089
:20258000C7FD7C73387B19F0C1F808E087F80D9005E07C733868407BB7211EF0D7FD109F77
:2025A000002FA5D10BF0F8FD9AF800300020012122F0E2FC18B1184620211CF059FD0020A8
:2025C000042122F0D9FCB3B278B152460789147822F0D2FC20BBBB42AEBF0027FF1ABFB2D7
:2025E00020464FB920211CF043FD002012E0C046AC730020201B00207A00202123F0F4FE6E
:2026000024F0B2F8044623F05BFD4FF47A716043B0FBF1F0CAF810000F9880F020004EE0B3
:202620000289BA42D8BF171CD2E723F019FF274C0546201D0068074698B157F80C1C9AF863
:20264000000021B94FF400511BF0A4FE03E04FF400511CF00DFD204639460022001D20F09E
:20266000A5FD284624F07CF82FB13846FEF77AFA384622F021FB0F9880F400501FE0084697
:202680001CF0C8FC071C17D0114920310A78FF2A0FD03C780B460020944207D0401CC0B28B
:2026A000C200D1189A5CFF2AF6D102E0496838468847384622F000FB0F9880F4004013B000
:2026C000BDE8F08FB1120200E4230020CC6300200C7A02002DE9F04F064693460020ADF1DB
:2026E0003C0DABF80000B06A099303460078884623F03FFB48B1708904461FF023F90228CB
:2027000004BFABF80040B36A01D0002009901878C84DDFF82493401E0A2800F20B84DFE861
:2027200010F02F03B3020C04A0028D0151010904BE00880066000B00BD4C207D012840F05D
:20274000F9835B1CB06913F8015B1F7823F040FE002800F0F7830379002B00F0F383032B51
:2027600080F2F0830E2D1CDCDFB9D04907752DB901EB85010A6BC261096B0AE001EB850154
:202780000B6B9A01A2EB8302C2610A6B9101A1EB82018161012180F820101FF053FA0025B0
:2027A00000E001250320B689E4788DF8190006A822F012FA071C00F0C58338690C2100F8CA
:2027C000011B00F8015B04700124BC7722F06EFF786204A9304621F0A7FE10B17C7704A82B
:2027E00038627E80BC76384607F032FDAAE35C1C207820F01F0700F01F00012840F09A8313
:20280000641C04A8214623F013FE284604A95D3022F092FE002800F08D83002F40F08A8323
:202820000834A2786178207801EB022120F0B8F888E3688F7189884240F07C835C1C14F829
:20284000016B04A8214623F0F3FD284604A95D3022F072FE06F01F0726F01F06002800F05D
:202860007183002E40F06E83780017F0C9FB011C00F0688367B184460834384663782278C9
:20288000401E04F1020402EB03222CF8022BF5D100910EF074FE08461FF0B4F852E35C78A3
:2028A0009A1C34F07F0704F01F0E40F04B83377F03201EFB00F0801CC1B2B94240F04283B8
:2028C000002714F01F0F04BF4FF6FE7C614618D0D9789B7870464D4603EB012C5378117872
:2028E00012F802EF01EB03213EF0770340F02A832B888B4208BF0EF00707521C401EEDD16B
:20290000BFB960464FF6FE72824212D004F06002602A0ED04D462A88A30907D2E30902D2F6
:20292000904203DD0EE3904203DD0BE39142C0F20983B08923F01CFD002836D1B0894FF631
:20294000FF7121F07BFA041C14D120F07BFB041C00F0F88200211C2219F08AF9B0894D46B5
:202960000E35208028886081AA23A3740622227401216174207C0C2805DB0620072F2074AA
:20298000BCBF7F1CFFB2677400202073A01C22F071FB002840F0D682307A002800F0D282E2
:2029A000B169A01C23F044FDCCE20021C171017A0C2905DB0621072F0172BCBF7F1CFFB2C5
:2029C0004772BFE2484671890088884240F0B282307F022840F0AE82AA4CA01D00884FF6A6
:2029E000FE71814240F0AE82162022F04FF8071C00F0A88201213970B07900280CBF081C6E
:202A000002207870B06A4078B872000902D2B0891FF08CFDB169B81C23F00AFD0020F8746E
:202A2000287839461DF0F2FDB089E0808AE2C0469C5D0020BC590020F659002070891EF0AC
:202A400081FF002840F076825F78B94987B10C2F03F1020380F276828C463D465A78187840
:202A60006D1E03F1020300EB02202CF8020BF5D1484675890488DFF8D892AC4200F0B28065
:202A8000B37C002B00F05E823B1C0A974FF0000811D0A74A38464146921E32F8023F9C42FD
:202AA00006D0401E01F10101F7D104E0D87D02000A914FF001082846002119F09FFE0028AB
:202AC0000B907ED0407901287BD10B98807910F0180F76D00B984188384622F011FD10B903
:202AE000B8F1010F6DD109F55F794FF6FE704FF000080C97B6F80CB0CDF820904FF0010A43
:202B00000D90C14611E0B8F1010F08BF4FF0010908D023F0E4FBC0B290FBF8F101FB08F1B2
:202B2000A0EB01094FF00008C246089D14271C3D35F81C4F4FF6FE70A04213D0A34511D09F
:202B40000C98214622F0DCFC60B96B7C53B1072B08DA08F10100BAF1000F5FFA80F801D111
:202B6000C14521DD7F1EE3D1B34D332735F8244F0D98A0421AD0A34518D00C98214622F0A8
:202B8000BFFC98B96B7A8BB1072B0FDA287901280CD002280AD008F10100BAF1000F5FFA36
:202BA00080F803D1C14501DC0D9407E07F1EDDD1B8F1000F02D0B9F1000FA4D00D980B9913
:202BC0004880B37C5A4C581EB074F77C00970A9D0195029401220392B189B269708915F0D6
:202BE00087FCAFE1B4890C2F80F2AC818846ADF81040BD488DF812700168CDF8148009B160
:202C000004A8884720461CF0BDFAC82803D14FF6FE701CF0B7FAC82880F2948109EBC000B1
:202C200000F6CC05686808B11EF0ECFE2FB1780017F0E6F9686010B984E1002068606C8044
:202C4000C2486F70007828706878002800F07A816868002800F076817A00414622F062FD37
:202C600070E1307F022840F06581099828B94D4671892888884240F06581099831460AF063
:202C80003BF95EE1D45A0020B5F8481040461EF053FDA846074608202FB17D781DB9062155
:202CA000397007257D70B16A0A79CC788B794D7891F802A0CF7904EB02244A7902EB032943
:202CC0006A0928BF1020AA0924BF0830C0B235F0700340F03781327F904240F0338105F04E
:202CE0007005680938BF002006D306A8083123F09FFB25F010050820A90907D3B16A091850
:202D000004A8083123F094FB25F020052046514620F008FF08280DDA8D4B410001EBC00101
:202D2000C9188879B84240F30D818F71002002E0441B00200420B8F83A10A14219D048B98A
:202D4000B189484601222B460EF088FE28B1F9E0201B0020042840F0F58006A804AE0090C5
:202D600049463A46534601962046029512F064F9E8E0B189484601222B460EF06FFEE1E068
:202D8000B5F8481040461EF0D7FC4FF00609041C03D06078002800F0CD80B06A8178477877
:202DA0000891C378017900F1050A03EB0120099040461DF077FC9AF8001009185FFA81FA80
:202DC000B80928BF4FF00E0937F0780040F0B28007F01800182800F0AD80307F814540F0E3
:202DE000A9804FF00009CDF800900899B0895246434619F077FD032800F09C80002807F03F
:202E000078074DD117F0180F18D195F8310028B1B089414601223B460EF020FE09984FF601
:202E2000FE714A463B460EF019FE002838D14FF6FF70ABF8000039E0082A002047F00107CB
:202E4000780928BF47F00207B089394619F0D6FC90B1817911F0180F0ED0417901290BD136
:202E600054B14088B5F848101EF066FC20B1437813B1607898425DDCB089414601223B4671
:202E80000EF0ECFD60B94FF6FF70347AABF80000002C0CBF4946B169B089524622F096FA1A
:202EA000BBF800104FF6FF70884243D1012000900899B0895246434619F014FD09983946D7
:202EC0001DF0DCFF698F81422ED1099823F050FA60B10079012818BF022807D1099804A978
:202EE00021F022FB08E0C046605C002022F0DEFB014604A823F09CFA307A012803D1B16992
:202F000006A823F095FA06A8009004AF0197B06A407840F0300002900999089BB0894A4606
:202F200012F08AF848460CE0B06A80F805A021F0C9FB06E04FF00009F4E70999304611F065
:202F400003F8099009980FB0BDE8F08FB65D00207A1B00202DE9F04FAD4C04F12C00076893
:202F6000ADF15C0D17B1002087F84500DFF89C824FF0000A17F148060BD0BF6DA24D6E6145
:202F80002FB940460068D0F84C0580476E697068686023F065FA1590082014F03DF91AF081
:202FA0004FF9454610B181A023F0D6FB1CF01AFC0CA822F0C7FF042650460CA98DF8306040
:202FC00022F0C8FF206422F09FFD04A822F022FF504604A98DF8106022F024FFA06322F085
:202FE0009DFD08A822F026FF504608A98DF8206022F028FFA16BE06319B974A023F0ACFBDC
:20300000E06B10B976A023F0A7FB206C10B979A023F0A2FB2868D0F8E00380472868D0F859
:20302000180280472868D0F8F0028047286807265746A03001687B581BB1184680472868B7
:20304000A030761E07F10407F4D1D0F8B8028047EB2023F05FF8E06A574670B16846FF21B0
:20306000082218F005FEE06A6946082221F014FE04F12C06012818BF37686A46654816920A
:2030800009C8391C82E8090021D1082016F0B8FF5FEA000856D0A8F10206032723F01FF953
:2030A00006F8020F7F1E4FEA20207070F6D13020F82706F8020F4146082204F1480088F858
:2030C000077022F02FFB40461EF09CFC04E004F14800082222F026FB012008216A4623F086
:2030E000C1F804F14806002818BF092826D121F08DFA80081DD26846FF21082218F0B8FDE9
:2031000002AFFF210822384618F0B2FD0120514608223B4622F0F2FD80B93846694608228B
:2031200021F0BAFD28B930463946082222F0FAFA04E001200821324623F09AF8E2203146FD
:203140001EF0C0FD21F062FA400834BF57460127314E5520012106F1320223F083F818B997
:2031600017B1504620F066FA2C4EE22006F13C0121F026F938461BF035FE6846514610226E
:2031800018F076FD707830F001004ED1DFF8908069461022404621F07FFD002842D16846C8
:2031A0004146102222F0BEFA3FE0C04652616E646F6D5F736565644175746F6D617469635F
:2031C0002829206661696C656400C04641455343434D206F70656E206661696C656400C050
:2031E000414553454342206F70656E206661696C656400C054524E47206F70656E20666121
:20320000696C656400C046C0D05E0020140100205831002088800200145F00209C5D002068
:20322000E87D0200684620F0D5F9622010216A4623F018F828B927B1622010216A4623F0E6
:2032400017F868465146102218F012FD384612F063FD38461FF05CF8384612F0D3FF7078D6
:20326000A8B9684620F0B6F940F2011010216A4622F0F8FF30B92FB140F2011010216A4666
:2032800022F0F6FF68465146102218F0F1FC1FB1504601211FF010FC282016F0B1FE0028F3
:2032A000606400F04881206B616B221D1AF0D8FCCF49087010211BF0DBFE616C201D086006
:2032C000206B616B04F108021AF0CAFC2968D1F84C138847616C04F108004860206B616B77
:2032E00004F10C021AF0BCFC0DF0ECFC616C04F1340704F1300804F10C0004F11009886003
:203300003946D8F80000096812974A461AF0A8FCB84F7870718E87F802A0381D01803030C1
:2033200006F14C01139007F1340023F081F806F1440396F82300FB6072783870022A11D104
:20334000307801280ED1DFF8B0B251464FF4B472584618F08DFC4FF6FE703C235B1E2BF8A7
:20336000060BFBD1606C1299C0F80C900968D8F8000004F114021AF073FCD34AD149BA608F
:20338000D24B0870D24A7B62606CBA6204F11403036104F11802129BD8F800001968149294
:2033A0001AF05EFCDFF82C9389F80700022289F824204FF6FE70A9F81C0022F077F909F1B6
:2033C000140BC5481399C0F800A0584623F030F8C248FF210E2218F04BFCC148C24B836042
:2033E000C24AC260BF49416080F800A0C04B0361C04A4261C2493961BF4B8361BF4AC26103
:20340000C04BC14A7B61C348C04BBA61C04AFB61C2491061C04FD16009F1300097601EF038
:2034200003F91EF09BF809270BF12C007F1E40F804ABFBD14F46F87948F201011CF0C2FE39
:20344000F8794FF400411CF0BDFEF87948F221011CF0B8FEF87948F222011CF0B3FEF87925
:2034600020211CF0AFFEF87921211CF0ABFEF87922211CF0A7FE606C1499129F4161D8F8E9
:203480000000396804F11C021AF0EAFBA44F48F2150138701CF096FE387838211CF092FE59
:2034A000A14BA24AFB609F483A61616C7861022387F828304FF6FE723A8404F11C038B6142
:2034C000129FD8F80000396804F120021AF0C8FB9749994F974A087004F120031760606C6A
:2034E000129FC3613968D8F8000004F124073A461AF0B6FB9A497378087023B991F833301D
:203500000BB10221F17148F202011CF05BFE606C129907620968D8F8000004F128021AF07E
:203520009FFB20708549087022F0D6FD4870616C04F1280048621BF0BDF8814C81485746F7
:2035400080F800A0296884F800A07F4B84F801A0D1F800216761D089D1F8501283F800A06E
:20356000103080B28847206120B92868D0F84C058047206900908DF804A09DF805100AF05A
:20358000030221F003010A438DF805209DF805106AF383018DF805109DF805106AF30711D6
:2035A0008DF805102968D1F80011C9896A461031ADF80610216913680B6052684A60E061F3
:2035C000276214F043FF6868C06807783FB92868D0F858245046014690476868C0685B4989
:2035E00081F800A05A4F87F800A0007860B905E0DF7300208C5F0020341D00202868D0F82E
:203600005824504601469047159823F0A9F80FF029FA21F02FF92868D0F8D40090F84300C7
:2036200021F03AF92868D0F8582451460120904722F032FB47486F6880F800A0F86800784E
:2036400028B92868D0F8582450460146904717F0ADF94148414A0721534620F061FE16F00A
:20366000FDFB1EF091FE10200DF142018DF842005A201EF027FB4FF4FA7010A9ADF8400088
:2036800055201EF01FFB03200DF143018DF8430059201EF017FB2F68052011A9D7F830242E
:2036A0008DF84400E02090477078022807D13078012804D14FF4004001210CF06DFA17B00B
:2036C000BDE8F08F6C6300207921010019810100555E0200205C0020FC5D0020221B00207A
:2036E0001862002089C70000DD3C0200D5D70100272B020059420200F91202008142020055
:20370000516801000D4601007D4602009DA40000C46200201945010005B3010021380100DD
:20372000C85F0020E1270200D53B020071430200AC630020B8630020851B02009C63002045
:20374000D4700020E6730020E8730020EB730020DC730020E773002074610020E56402006A
:20376000145F00202DE9F04FADF13C0DC54C0B90C3480C91002147780E919FB137F0010629
:2037800008D0022F12D1207900F0F80141F00201204605E02046017901F0F80141F001013F
:2037A000017103E0207900F0F8002071261D3078402537F00102657100F00700307005D1E5
:2037C0008E20A0716FB940F0010009E0022F08D1AB4980200978A071012902D140F0080083
:2037E000A0710E99F170317150256572A020B071F171B072F172A089099140F43050A08162
:203800002174B2B1022F1CD101201AF085F828B9206820F00F0040F0020004E0206820F0B4
:203820000F0040F001006FF30F1048F22021014306E0216894484CF21017084047EA0001DE
:203840002160934B9149A0791F780A9381F8320067B90E981BF0C6FA8C4890F8320000090F
:2038600011D30E9808A98DF8200009E0084690F83200000907D301200DF121018DF82100AD
:2038800052201EF01FFA1AF015FF20F0BFFE800838BF0E9803D30E981FF0CCFE01200028E1
:2038A000DFF818A30D9040F0D8800EF0A5FA5FEA000B40F0C380754ADDF8388021207421CB
:2038C0002432174622F0CEFC002859D12120414674223B4622F012FA002851D16B48408F3E
:2038E0004FF6FE7181424BD0684890F84A004FF00108082806D0042804D011F0DDF8DDF8BB
:2039000038803DE0C14642200DF122018DF822901EF0D8F907F12F0143201EF0D3F907F1D5
:203920002C0147201EF0CEF907F11C014A201EF0C9F907F11A014B201EF0C4F907F1240169
:2039400028461EF0BFF907F1160153201EF0BAF907F12D0154201EF0B5F907F11801E12088
:203960001EF0B0F9494890F83200000938BFDDF8389052200DF122018DF822901EF0A2F935
:203980000E9D17E0DAF804100E9AA80000EBC5000C23401881460090294601201EF0E4FD42
:2039A00030B999F80000FF2804BF099889F800006D1CADB23248BAF800104078A942E1DCFD
:2039C00030F0010001D110F03FFBA148001D006800B180471CF0BCFFB8F1000F1BD022F058
:2039E00093FB0A99888318B9307800F0F800307023484078022818BF012104D1234A099861
:203A0000032182F84A000A98393741703946143022F00EFD01E04FF0090B8C4D0999184F05
:203A2000A81C0180787818B91DF0BAFD38464078BBF1000FA94605D10E9904E01048DFF84C
:203A40000C92407801210D9110490A9D91F83C20012707FA02F1E9609EE00EF0CDF911F0C3
:203A60002BF80A4A21207421243222F001FC02A8FF210C2218F0FCF80E9D574612E0C04660
:203A80009C5D0020A47200200000FFFFBC590020205C0020294601200C2202AB1FF0ECFAA8
:203AA0006D1CADB23888A842F4DCC148407830F001000ED102A8FF21102218F0D9F80E9D63
:203AC00003202946102202AB1FF0D6FA6D1C332DF6DB5F48006800B180470998ADF8080007
:203AE000162016F08DFA071C10D0FF21162218F0BFF8384602A9022221F014FE42201621E0
:203B00003A4622F0B5FB38461DF07CFF09980E990622ADF8100002A818F0AAF8142016F0AA
:203B20006FFA5FEA00081BD0A4480C300768A7B103270225A8B202A90622404421F0F2FDEF
:203B4000AD1D7F1EF6D104A94046022221F0EAFD4C201421424622F08BFB40461DF052FF43
:203B6000182016F04DFA071C10D00E9D1822294618F07EF80620294618223B461FF07CFA16
:203B80006D1C032DF6DB38461DF03CFF1DF0E2F98748DFF8B89040780D99884D012967D16A
:203BA000B44F2437F0B101280AD002280ED1307800F0F80040F0020007E0C046C463002004
:203BC000307800F0F80040F001003070A24820F0A1FF002808BF099809D00A9A0421032095
:203BE000917204E03178022001F0F8013170DDF8288088F8010022F072FB0B996C4E00F0BD
:203C00007F000818643080B20E90B06B0221C8F80C00FF201EF050FF96494FF6FE70431C2A
:203C200048870E46F0870998A1F848301FF002F85F484078012810D10C9801280AD009997D
:203C400002A8082218F014F802A804E0D86200202C62002009981EF015F8212074213A46D4
:203C600022F006FB099802211EF026FF50484078DDF834A018B9A08940F00100A081EF689E
:203C800087B9122016F0BCF90646002EEE606ED04FF6FE70B61F0327411C26F8060F7F1E12
:203CA0007180FAD1BAF1000F61D1099906AB4C20022222F023F8002852D1BDF8180000280C
:203CC0004ED004284CDA182016F09AF903274FF002084FF6FE7B0646099CEB681FFA88F19C
:203CE0004C2006221B1922F009F878BBE868015B8B452BD056B300962018099A41881823C1
:203D000006201EF031FC3069EA6800F2E93333611019418805F11002880000EBC100E96836
:203D20001350081973694188880000EBC1008018E9684360081941881822334606201FF0C8
:203D40009BF909993046182217F092FF7F1E04F1060408F10608C0D116B130461DF052FE17
:203D6000134B099971200822443321F0C7FF10484778381C06D121F099FC22F07BF80C4879
:203D8000477817B122F06EF818B10120A870099EEE703248324EC9F80C00C9F810607FB1F5
:203DA00037F0010006D120F0DFF92F480BE0C0469C5D002020F0D8F92C4804E0503E0020B4
:203DC00020F0D2F92A482749BAF1000F086019D0284890F86500A8B92748407890B9DDF818
:203DE0002480622102AA404618F02AFE02A841461FF0E5FD404614F06DFC02A810224146C2
:203E000017F036FF0A98006950B10A9C1034076820681DF0F7FD0A99384600280861F6D1FF
:203E20000A9A099F01200146107002F1090457728520093222F016FA28B98520394601225B
:203E4000234621F05BFF0E9821F0A4FA20F04CFC50460FB0BDE8F08FC05F002051F30000E5
:203E6000255F0200C06100206176010057500200BD810100BC5900209C5D00202DE9F04F18
:203E80000446B14DB1480021ADF14C0D001D2E680768A0780C910146102910DC102900F05D
:203EA000AC80002900F0A682491E012940F2F581891E00F04D81491E00F01C813CE311399A
:203EC00066D0491E1ED0491E03D0491E00F03A8332E3207967798DF81000E0788DF8117088
:203EE00021F090FA002808BF022005D00C3004A9022221F017FC0C988DF82000132108ABE0
:203F0000012233E3204634460421C61C304621F0C0F80C9F0121002C35D0A268904203D095
:203F20002468002CF9D12EE06CB3361D304622F01BF9B778804657B92868844218BF251C70
:203F40002068286020461DF05DFD0C991BE0B81C16F056F8051C04BF10210C9F13D00C9875
:203F600028706F7061683A46A81C414421F0DAFBBE1C642012212B46F2B21EF0BBF828467D
:203F80001DF040FDF5E23170334612217770ECE220460126C41C8DF82160204622F0E4F837
:203FA0006F68A3780FB3B3B938680090686818300190787E0290B87E03903969BA8AFB8A4C
:203FC000381D07F0FBFC8DF8210068681DF01AFD0C9868600CE03968E41C1A46091808463C
:203FE000214621F09FFB0C9800E010208DF82100112132460DF12103B8E22546B94C8946B0
:204000002D1DA07815F8011C002936D0491E10D0491E02D0481E5FD05CE0287821F0AAFF3A
:20402000002861D041680978E170007820710C984CE02D78002857D1E1200DF1230120F0AB
:20404000BFF99DF82300854242D00126A670304621F04AFE0C9809A98DF8240052201DF08D
:2040600031FE28461CF02EFF90B3657020783146642222F0B9F9BA2028E0002834D1E120E9
:204080000DF1250120F09CF9CB4E9DF825103C36307888421CD0DDF8308001255220A57072
:2040A0000DF126018DF826801DF00CFEE12031461DF008FE52200DF126018DF826501DF06F
:2040C00001FE404621F010FE4046A07002460CE00C9A0AE00220F9E7284622F045F80C9A7D
:2040E000A97822F010F900B901228DF822200DF122031FE210218DF82710E1788046DFB121
:204100007A681278384691420ED03F683FB17A681278914205D038463F68002FF7D102201B
:204120000BE03968016002E0B1493868486038461DF068FC0C9800E001208DF827000DF130
:204140002703CDF83480A5E0E4630020A463002001218DF828100C990D900C2204A817F0A7
:2041600087FD25460224ED1C8DF81840284621F0FBFFAF1CADF8100017F8010B8DF8190092
:2041800017F8010B21F0F6FE8146384621F0ECFFBD1C0E9015F8010B15F801AB15F8018BDC
:2041A0002E788DF82900700015F02AFF0F9000286CD06D1C4EB183463746284621F0D4FFEA
:2041C000AD1C7F1E2BF8020BF7D1B9F1000F57D0CDF8409015F8013BDDF83C903746AB46B4
:2041E0000C2FBDF8105011934ADA28461AF0CAFFC82815D14FF6FE701AF0C4FFC8280FD140
:20420000C34890F8CC38012100F6D40C0C981CF8082B9342C4BF131C081C491CC829F6DB52
:20422000C74C4FF6FE7604EBC0046068668018B11DF0E8FB0C9860606FB17E00304615F01B
:20424000DFFE6060002808BF102419D060684946324621F067FAC9486580007867700DF131
:20426000290620701099CDF800B00E9A0196119BCDF808A004A8CDF80C8007F09FFB044631
:204280000F988DF828401DF0BDFB02E010208DF828000AAB0D9881464CE194F801B0012159
:2042A0000228814604F103048DF82B101CD114F8010B03288DF8180005D0204621F054FFE5
:2042C000ADF8100004E004A82146082221F02AFA083414F8010B8DF81900204621F044FF27
:2042E000A41C0FE0AC63002002208DF81800204621F03AFFA41CADF8100014F8010B8DF85F
:2043000019000C98ADF81A0014F8010B21F032FE8046204621F028FFA41C0D90B9F1020F4C
:2043200014F8010B14F801AB14F8017B8DF82A001CBF14F8016B06F10A0006D1204621F0D4
:2043400013FFA41C064606F11400B8F1000F80B242D0FA2832DD6C68002C3DD106F11C00E6
:2043600015F04EFE04466C6024B30C9804F11C0504A98DF82B000C222560201D21F0D2F91C
:20438000C4F810800D98A082E6829DF82A50257684F819A0A7760F23E376794C2078082195
:2043A0004FF47A7222F020F8C8B1207808211AF05FFE14E0102010E0BC59002000940DF128
:2043C0002A000D9A019041463346CDF808A004A8039707F0F3FA00E002208DF82B002BF017
:2043E0001F0BBBF1200F40F0C4800DF12B03A1E0A46300204FF0100A89468DF82CA0504661
:2044000015F0FEFD071C00F094805D48E41C7860207821F0AFFD00287CD120780C9E387044
:20442000B04687F80C80142015F0EAFD0028B8606BD014F8011B017062782178A61C01EB26
:204440000221418031787278B41C01EB02218180817914F8022B01F0F00102F00F020A43A0
:204460008271B96814F8010BC871BD68EB79464673B1580015F0C4FDA860B8688568002D3E
:2044800008BF564604D03046BA68D179814231DC2078B9680873BD682B7B73B1580015F0B3
:2044A000AFFD2861BD682B69002B08BF564606D0641C4046297B814210DC102E2BD1A86807
:2044C00010B11DF09FFABD68287B18B128691DF099FABD6828461DF095FA1CE06278217815
:2044E0002B6901EB022123F81010BD68A41C421CD0B2DFE7637821789268451CA41C01EBD8
:20450000032122F81010E8B2BEE7564603E0C046201B0020B8268DF82C603EB938461DF0AD
:2045200083F88DF82C009DF82C0010B138461DF069FA0BAB4946E3E402200C9019E0C04616
:20454000EC2300200C988DF810008DF81100E07804A920F0BDFA9DF8117014219DF81000A1
:204560008DF81D7007AB8DF81C00022264201DF0C1FD0C9813B0BDE8F08FC046B65D00209F
:20458000DF7300202DE9F04FDFF814B3C34C01214FF0E047ADF12C0DDBF804002569C068BB
:2045A00008931F400170C84807924FF0000101704FF0020000EA020008BF002840F0F48274
:2045C000DFF80893DFF8088311464FF480301E4600270840374008BF002832D100204FF41E
:2045E000003110EA060701EA020108BF00290ED137464FF48001384001EA020108BF00292F
:2046000000F0C6820020287119F096FCC0E22871EB201EF095FC4A460020414610700878F2
:20462000862801D11EF0F4FC21F01AFFE1690A68002313710968E16122F092F820F06EFFA3
:20464000A6E20020DBF80070287107F1B8000168DFF880A20F782FB951460F7817B1D0F8A7
:20466000940480471EF0BAFC812756469A4937709A4D0860FF232B702778A7700021A18144
:204680002069DBF80050007A4A460E46801E81B2D5F800011670C0890A918842C0F26C829D
:2046A000E1690831096804F1180001600426A6810A98DBF80060657EA17EE37E04F11902FF
:2046C000C01E80B206F1B80C0A9005EB012051786081C1F30119DCF800102371097806925B
:2046E000002908BFB9F1020F00F04682B9F1020F00F3428219B110F0070F00F03D82667878
:2047000000F00705AD1E022D08BF002E00F0348231B141460978862902D1002D40F02C8291
:20472000001300F00200022864DA35435AD1DCF81C0090F88300022851D0E1690C3109781B
:2047400005A801700527A78121F08AFE454606462878862840D1DBF80000403001680F68F5
:2047600037B9D0F80C058047DBF80000006C07689DF9140021F0B2FE7877DBF80000016C61
:20478000096800228A77006C9DF914100068C177304621F0E5FF2679678921F061FE4146CE
:2047A0000A7807F01007862A15D1BB4D05F11E031A88521C1A8087220A7021F0D1FFE879A5
:2047C000B04206D11FB9002018F0AAFD07E01B20FAE7E920F8E70646304621F0C1FF20F0DB
:2047E0009DFECBE141460878862803D11EF010FCA77866788FB186B9012F00F0BD8160890C
:20480000022F03D110F0070F40F0B681032F05D100F00701032901D0AEE16089010980F027
:20482000AB81011301F00201022902DA810A80F0A38106994978C1F38108B8F1010F4FEA8F
:20484000A111099100F09881012900F09581B9F1020F14DA00F00701012918BF03290ED126
:20486000B8F1000F0BD1099F002F00F0858159460968AC3109680F78002F00F07D81BD49CF
:20488000B9F1020F0ED0099E11F808708A5DB918CFB256B3C10928D3BF1E13E0D47000201C
:2048A000140100200A46099908EB0207891809793A795218C109D7B212D2099958EA010673
:2048C00013D0BF1CFFB210E094630020E8730020EB730020E6730020C8730020E547002049
:2048E000099958EA010608BF02270A9AC0F30020391A60718A42C0F23F81DBF8006011467A
:20490000C91B091888B2D6F850122081743080B2884700286678606100F02E8100217422C5
:2049200017F0A6F90020E07062891EB9C14902F020000870BF48617906784FF0000C002E33
:2049400030D000292ED102F00700032808D0012828D1DBF80000D0F8D40090F882600EB377
:20496000DBF80400406906781EB121F0F5F8FE2815D0DBF80000D0F84C02804750B9DBF8D5
:204980000000D0F84402804720B96289617994F803C007E00420E0706289617901E0042030
:2049A000E07084466569268905F1740305F17400AB65069B686093F801902E812089C9F3E0
:2049C000011A0029A5F85C001878AA8100F078004AEA00004CEA000028744FF0FF06AE730C
:2049E0000CBF2079002085F83A8085F84900099885F83000A089002FA0EB010086B2A681A5
:204A000000F0B580E169E78068463A468919083114F0C4F9BF19B8B2A0812846017C4FEA6F
:204A2000A90212F0030F02F003076D4601F0400843D0BAF1020F4FF0000301D1C9090BD23D
:204A40009DF801209DF8001001EB0221A0F844100DF10205A0F84210804EB0F84410B6F899
:204A600042208A4203D04FF6FF728A4223D1032F14D06A78297801EB022189B24186B6F867
:204A80004020AD1C01208A4214D04FF6FF728A4218BF181C0EE0C04688610020606929465A
:204AA000323021F0C5FC606937363146323020F043FD08350346002B56D00698407886119F
:204AC0001ED06169BAF1020F03D0087CC00903D309E058EA070306D16A782878AD1C00EB2A
:204AE0000220A1F84200032E05D068782A7802EB00220A8504E060692946283021F098FC7A
:204B000059460968AC310A686089167886B1BAF1020F0DDA00F00702012A18BF032A0BD1E1
:204B200062692FB94E4BB2F842201B8893421BD100F00702032A05D0012A18D1886A90F830
:204B40008200A0B1D1F89C116069884778B90020069FE070B97866697878C1F3011100F088
:204B600078000843307402E019F0E6F906E00BF06BFD03E09885020020F018FF21F070FC15
:204B8000E1690A68002313710968E16121F0E8FD079A089F202100201140384008BF0029A7
:204BA00030D020F083FC2DE02E4991F90000002803DD91F90000401E08702B4991F90000F2
:204BC000002803DD91F90000401E0870114600201E464FF080770840374008BF00280DD0D1
:204BE000224991F90000002803DD91F90000401E08701F480121017020F060FE0020287137
:204C000019F09AF9184A92F90000A8B1079B089F02214FF0E0401940384008BF002914D042
:204C200092F90000002810DCDBF80000D0F84C0580470AE0E8730020DBF800700D48002104
:204C4000D7F85824017008469047DBF80400C06800210BB00170BDE8F08FC046D05E0020AF
:204C6000125F002097630020966300209863002095630020926300202DE9F04F0446B54E86
:204C8000A578F06A4FF0000BADF14C0D2946312911DC312900F0E280DFF8C882B24F14299B
:204CA00014D91C3900F06281491E00F01B81133900F0E9807FE2323900F0BA80491E69D0B1
:204CC000491E012929D9891E17D074E2DFE811F06402A502A10250029902730273022402E8
:204CE0004E010A010D02F8018F0273028902DE0173027302C901B801760240B1C06830B103
:204D0000E01C21F031FAF16AC968884700E003208DF8380036210EAB61E201270028A846AF
:204D20008DF839702ED0406A60B3204602A91FF043FF342D044618BF584602D121F014FA16
:204D4000A41C2578E0B902A821F00AF8641C01280DD1BDF80C00294622461FF01FF9BDF8A5
:204D60000C00012803D1E22021461CF0ABFFF06A466A02AB93E803002A462346B04702E024
:204D8000042000E003208DF8390041460DF139033D46A5E0002840D0C06900283DD0204669
:204DA00002A91FF009FF054602A820F0D9FF012818BF584603D1BDF80C0020F0D7FE0446F2
:204DC000284621F0D1F9AD788046F82DA8BFF725A81C5FFA80F9484615F012F9071C1AD0B6
:204DE000A4B9F06ABE1C02ABC469009693E8030042462B46A047041C08D1584638704A4685
:204E000033213B467D7061201DF074F938461CF0F9FD1CB90DE2102400E0032408A8594607
:204E2000022216F025FF8DF82040332108ABFCE168B1806A58B104A920461FF0BDFEF06A18
:204E4000826A04AF97E803009047014600E0594602A820F05BFC32210422D8E160B1806957
:204E600050B1204602A91FF0A7FEF06A826902AF97E80300904700E003208DF83A00312109
:204E80000DF13A03ABE101258DF83B5010B3006900B3204602A91FF08FFE042120F0F9F863
:204EA0005FEA000814D015F0ABF8F46A071C14D05946424616F0DCFE246902A803C842461F
:204EC0003B46A0478DF83B0038461CF09BFD04E0052000E003208DF83B0030210DF13B032F
:204EE0002A46A3E1E41C8DF83CB0204621F03CF9A846092D064609D0A01C21F035F9074610
:204F0000201D21F031F9A41D054602E0A778E578241D242E03D12088352606AC0690304687
:204F20001EF0B8FF7919884216DB27B93046294622461FF033F830462946224621F098F909
:204F400030B9012E0BD1E22021461CF0BBFE04E00A2002E05831002002208DF83C0041462C
:204F60000FAB3CE1DF730020C88502002646F61C304621F0F9F8A9468046B8F1240F46D0FC
:204F800020F0F4FD0446082D08BFB67803D0B01C21F0EAF8064640461EF07CFF86422BDAE2
:204FA0005CBB801B85B2F82DA8BFF725A81C5FFA80FA504615F024F8071C1BD0B81C594691
:204FC0002A4616F055FEBB1C404631462A4620F095FE48B958463870524649463B467D7045
:204FE00061201DF087F800E00A2438461CF00AFD1CB91EE1102400E002240AA85946022282
:2050000016F036FE8DF8284049460AAB0DE135205946042207AB20F071FE38B9BDF81C200A
:20502000584602210425ADF8262002E00120594602258DF824008DF8251009AB08214FE75C
:20504000E01C21F091F8242802D01EF023FF00E058468DF82C00001213210BAB8DF82D008F
:20506000E3E0E01C21F080F80546601D21F07CF80146242D03D0284621F068F900E05846D2
:205080008DF83F0012210DF13F03A8E0E078211D70B1401E0AD10878012805D020B15220A0
:2050A00010A91FF08DF908E0522002E0022002E0E0201CF007FE8DF840000F2110AB8EE033
:2050C00041460125087814F8031F8DF842500429A8BF022003DA37F8111019F033FD8DF8BD
:2050E00042000B210DF14203FAE6E41C20780428A8BF02200ADA601C21F036F8267841460E
:205100000246087837F8161021F06EF98DF843000A210DF1430362E0E01C21F025F806460B
:20512000601D21F021F8E779E51C0146242E19D0B94205F1050510DD30465A4621F092F84C
:205140008DF844009DF8440009280ED16FB1304639462A4621F08CF807E030462A4621F0A5
:2051600081F800E058468DF84400072111AB36E00127E41CE2208DF8457021461CF0A2FDFF
:2051800030B938460821224621F072F88DF8450003210DF14503FBE5E078284C30B1401E7D
:2051A00047D120F0BDFF01202060FEE720F0B8FF01202060FEE74FF0020B3AE094F9030042
:2051C0001F4F8DF83D003868D0F830240DF13D01E020904714210DF13E038DF83E00012276
:2051E00024E08DF841B00E210DF14103F7E721F076F88DF830000C210CAB00128DF8310006
:2052000013E0E22002A91FF0DBF80421082202AB0CE00C4B02210A2208E0592006270121CE
:205220008DF834000DAB8DF83570022261201CF061FF584613B0BDE8F08FC0467C05204353
:2052400014010020848502002DE9F0430646D948B57800780024ADF13C0D294640292ADCCA
:20526000402900F0B881202914DC202900F0E981092945D9103900F00B82491E00F0FE81D4
:20528000C91E00F0F281491E00F0E881481E00F0DD8141E1B1F1210000F0CD81401E00F0DF
:2052A000C481401E00F0B781401E00F0AE81401E00F0A38130E14A2911DC4A2900F0678178
:2052C000413900F07D81C91E00F07681491E2ED0C91E00F06481491E00F05D811CE1B1F1A3
:2052E0004B0000F04181801E00F03A81163800F02881401E00F017817C3800F00F810BE17B
:20530000091E00F0AB80491E4DD0491E00F00482491E00F0ED81491E00F0DD81491E00F019
:20532000CC81491E1FD0C91E00F0B781F4E0304606A9C01C20F02AF98DF81E0048B99DF87A
:205340001800BDF818708DF81F0038128DF8200005E00DF11F00FF21022216F089FC03226F
:205360000DF11E03EBE130468DF83640C61C304620F0FAFEB778C0F304213FB9052903D071
:205380004FF6FF7181420BD1204607E0052903D04FF6FF71814203D14FF0FF30DD49086023
:2053A0000DF13603CAE1202014F02AFE061C00F0CA81FF21202216F05BFC731C012021466C
:2053C000082220F09BFC751C071C18BF01272146042205AB842020F091FC083560B99DF8E0
:2053E000170028709DF8160068709DF81500A8709DF81400E87001E047F00207832021468D
:20540000022207AB20F07AFC2D1D38B99DF81C002870BDF81C000012687001E047F00407CE
:20542000ED1C6120214601226B1E20F067FC08B147F008072146102262202B4620F05EFC67
:2054400008B147F01007012120223346672037701CF050FE30461CF0D5FA74E1264630F0AE
:2054600001008DF83B600BD10DF13B0018F0CAFE9DF83B1080460E2000EB4100C7B201E0CC
:20548000A0460E27384614F0BBFD5FEA00093DD0054621460822012005F8016B2B4620F071
:2054A0002DFC20F031FE0835072305F8010B001205F8010BA64A05F8013B1078A54905F85D
:2054C000010B4B7833F0010316D19DF83B0028709DF83B308BB141466D1C20469DF83B20E5
:2054E00082420ADD0A782A7031F8022B401CC0B212126A70AD1CF1E72E70672021463A4616
:205500004B461CF0F7FD48461CF07CFAB8F1000F00F0198146469DE7022414E122464720AE
:20552000E02113460DE13046C11C4A7A087A00EB02208A7A8DF82E400EF080FE0DF12E03DB
:20554000FCE030468DF82F400822C01C0146684620F0E8F868461AF095F80DF12F03EDE0D8
:2055600030460FF0F5FCEEE0F11C6846082220F0D9F88DF80840CDF80CD002208DF8090013
:2055800002A815F001FF0CAB8DF83000D6E030461CF0CEFDD7E030461FF012F8D3E0F61CE2
:2055A000307871781EF030FE307033460012707039E0C0469D5D0020304612F0EBFFC2E0D6
:2055C000F01C20F0D1FDADF80200684616F08AFB01AB0822B3E0F11C01A8082220F0A2F80E
:2055E000684618F06DFABDF802000DF122038DF8220000128DF8230015E0F5208DF827405D
:205600000DF126038DF826000DE0F5200DF131038DF831003AE0F520FF278DF82A000DF1CC
:205620002A038DF82B70022289E0F5200DF132038DF8320082E0F5200DF133038DF833002E
:205640007CE0F5200DAB8DF8340077E068462146092216F00DFB162109222CE06846214640
:20566000062216F005FB152105E068462146062216F0FEFA1421062268460CE0F0781CF03B
:20568000B1FD11210DF135038DF83500012257E03278F01C1021034652E021F065F80546C5
:2056A00020F00EFD2C496843B0FBF1F1684620F02DF8092104226B4642E062201EF0EAFBA7
:2056C000F61C01463246622020F0D2FD0DF137038DF8370032E061201EF0DCFBF61C0146D3
:2056E0003246612020F0C4FD0EAB8DF8380025E0F01C04211FF0CDFC049084201EF0CAFB51
:20570000014604AA842020F0B3FD0DF139038DF8390013E04C630020F01C20F025FDADF893
:205720001A0083201EF0B6FB01460DF11A02832020F09EFD0DF13A038DF83A0001222946B2
:2057400067201CF0D7FC20460FB0BDE8F083C046205C00209C5D002040420F002DE9F04F05
:20576000CF48D04CDFF840830F46390CADF1240D80F06582790927D300230370D7494370B7
:20578000184620F021FDD649012020F01DFDD549062020F019FDD449072020F015FDD84922
:2057A000082020F011FD0522D6498DF80C300DF10D001FF0B7FF41208021062203AB1CF0E8
:2057C00099FC87F0100044E2B80828BF87F0020080F03F822068390931D217F4706F08BFB8
:2057E000002000F03682380B04D3002020F0C8F987F40067F80A04D3012020F0C1F987F4B5
:205800008067B80A04D3022020F0BAF987F40077780A04D3032020F0B3F987F48077384609
:2058200017E22168884205D0016829601CF0EAF8286804E0016821601CF0E4F8206808BBD6
:20584000606858B1C27EC17E521E491ED6B2C17626B960681CF0D6F8002060602668002E45
:2058600008BF00280BD04446207808214FF47A7220F0BAFD18B12078082119F0F9FB87F01F
:205880000800E6E1017B491E0173C9B20029C8D005460068D3E70546D9F8046028781A28D7
:2058A0000EDC1A2854D0401E00F06C81401E00F02B81801E00F0B581801E00F01781BBE1DD
:2058C000243800F0A881AD3800F09E81801E03D02A3800F08B81AFE1A87C0930C0B280466B
:2058E00014F08EFB061C00F0A781A97800F8011B6988091200F8011B99F80C1000F8011BCB
:2059000099F80E1000F8011BB9F80E10091200F8011B99F8101000F8011B99F8111000F857
:20592000011B99F8141000F8011BB9F81410091200F8011BAA7CA9691FF0F4FE4520FF21C0
:20594000424633461CF0D6FB30461CF05BF873E1B5F824A0E97B0AF114001FFA80F820F0BB
:20596000D2FC002640B9A87B032805D0B8F1F00FD8BF4FF0810B16DD08F10A004FF0820B4B
:205980001FFA80F8B8F1FA0F0DDD0AF1100014F037FB061C00F0508106F11000A8EB0A040E
:2059A00070601FFA84F8404614F02AFB079020B9002E00F041813046A0E00446A87804F827
:2059C000010B6888001204F8010B287904F8010BA888BBF1820F4FEA202004F8010B1AD12F
:2059E000A87B04F8010BA87B032805D0A8792070E8880012607004E0A91D204608221FF00D
:205A000091FEE87B083404F8010B287C04F8010B288A001207E0A87904F8010BE88800124E
:205A200004F8010BE87B04F8010B287D04F8010B687D04F8010BA87D04F8010B687E04F84A
:205A4000010BE96920461FF061FE241DBBF1820F04D0002004F8010B504606E0002004F802
:205A6000010B04F801AB4FEA2A2004F8010B0E480078DEB10B4909680A4B31604FF47A72B0
:205A80001E6008210F23337320F0AEFC20B106480078082119F0ECFAE869B060706807E0FE
:205AA000405D0020E4630020DF73002020465444A96A52461FF036FE95F82C0004F8010BA3
:205AC000A88D5FFA88F85946001204F8010B95F82E00079E2070442032E7C04669E2010040
:205AE0007B310200C518020065330200A878401DC0B214F085FA002800F09E80064623E781
:205B0000E12502008485020029790B2000EB4100C0B21EF0BBFF002800F08E80A9782E7951
:205B20008DF80010EC788DF802608DF801400DF10301FEB1AA792C79EE880A70022C4FEAEF
:205B400026218DF804100DF1050113DB2A7A2C792E890A70032C4FEA26218DF806100DF1B1
:205B6000070107D1AA7A6E890A7031128DF808100DF109012A7BAE890A7032124A701FF065
:205B80009BF859E0002E57D070788DF81500B0788DF816003078FA2819DC9DF8150000F046
:205BA0001E00162811DA2C499DF815000D4600F01F00820050194068091D30B1895830462C
:205BC00088478DF8140028B9BEE6012000E004208DF814009DF8150020F01F0020287FF486
:205BE000B3AE60200021032205ABABE66878AE78EC788DF8180006AB8DF8196003228DF8DD
:205C00001A404420802103E06B1C4520C02101221CF070FA10E0F0783346401DC2B26920B1
:205C2000F0E7F078401DC4B2A11E701CC9B21FF0A5FEA41904F8010C48461FF03DF80748F3
:205C4000007819F0E7F95FEA00097FF424AE87F4004009B0BDE8F08F405D0020DF73002085
:205C60002DE9FC47D44C0F460546F80B80F006826078DFF85883B90F80F0AA81B90880F0F2
:205C80009D81F90A80F00281390B80F0CC80380907D2F80FC0F0288227F0804717F0F8FC9C
:205CA00022E220F0DDFB81461FF056F8002800F0B480082020F07CFA002840F0AE808020B4
:205CC00020F076FA002840F0A880684613F09AF9012803D10098002800F09F8094F83102F5
:205CE000002840F09A8000250126E8B21FF0A2FF48B1837A3BB1867290F9090006FA00F040
:205D0000C0B21CF051FD6D1C032DEED3032084F8200004F5C47020F09DFB484620F020FDEE
:205D2000D34800252A460168056050F8081CD14940F8085C04F15C001EF01EFF4046006859
:205D4000006B8047A168401A010BA06AC1F1FF3282422CBF08444FF0FF30A06294F82C0092
:205D600020B12069A16AB1EBC02F25D91FF004F8294600B13146081C1BD0BF4840F609013D
:205D800001804580417B06F00F0221F00F010A434273017B05F00F0321F00F0143EA010203
:205DA00002732946416020F0A5F8418811F4406FFBD084F82C60A5621AF040FFCE4829468C
:205DC000056002201EF0EAFC02201DF073FB112010F0E8FF207818B96068483020F056FB89
:205DE000C648007810B90E2010F0DCFF94F82D0020B184F82D5005201DF05CFBC048606275
:205E000084F82050B4F9B000B4F9B210884214BF0220072015F024F802E0484620F0A0FCA7
:205E200027F008073AE720B104201DF043FB0020607065681CF09CFC38B12846ED696FF46A
:205E4000807100224FF00073A847E06858B140460068006B8047E2686168801AC860000B3D
:205E6000C8600026E660A74904F15C0000221EF083FE0221D4F89C0084F8201018B104F1A7
:205E8000DC0020F00BFB27F4006707E720F0E8FA06461EF061FFD4F894100028894600F09D
:205EA0008480002900F081809749042504F15C00002284F820501EF05FFE304620F050FC1F
:205EC00004F5C47020F0C6FA40460068006B8047E0604FF0010884F8018028461DF002FBA8
:205EE000D9F810006060D9F81000416AC90803D3036A294600229847404618F053FE60684A
:205F000080F81580606811F06DF86568D5F808A040F60A02D01F564600F1010C00E01E46F5
:205F2000736833B119888A4203D0884218BF8C45F5D100217160727B08F00F0322F00F021E
:205F400013437373D9F80C201288904224D06046904221D02B8E03B3696305F1300251800B
:205F600095F83C0001F00F0320F00F00034385F83C3095F83D0008F00F0320F00F000343CE
:205F800085F83D307260707B01F00F0520F00F0045EA0001717300E0E16050461FF0AAFFB3
:205FA000514640461EF0FAFB02E0304620F0D8FB27F4806798E0C046E84700200AF046F97E
:205FC000D4F89C0008B927F002078DE08C0100104E4A116841F08001116020B104201DF038
:205FE00069FA0020607020F03BFA8246D8F85400016804208847D0B1287DC0B1A068B0B1C1
:206000008146D8F800002E69006B8047A0EB09002861000B2861B04202D28019400828613F
:2060200040F6C41181422CBFB0F5967F2961504620F096FB1CF09CFB80B1EE6928466FF430
:20604000807100224FF00073B047D4F89400002808BF47F0020701D017F01AFB2846AD6984
:2060600000214FF080630A46A84727F000573BE01410044029F10100B872002020F0F0F94F
:20608000D4F8AC6066B306F1280106C90A234FF0E0450B40154008BF002B21D106F12801EB
:2060A00091E8000306F1280595E8060006F1280322EA090221EA080183E8060020F050FBA4
:2060C000B16879B1B9F1000F08BFB8F1000F09D03069B6F93010B5684B464246A84701E0DE
:2060E00020F03EFB27F4804727B104F1DC00394620F0D4F9BDE8FC8700000460328502002B
:20610000ED470100453E0100394D0200CC2108402DE9F04FADF17C0D1B91C0491C923CC925
:20612000064610A83CC00EC980E80E0000248DF84240327F8DF84340B08D8DF84D40D6F811
:2061400028C0ADF844401746ADF85A00F0898DF854706146ADF84A00087800F00303022BD7
:206160008DF8400000F3FD8123461D93491C1E9343083CD200F00C0EBEF10C0F0CD0430965
:206180003CBF11F8013B8DF84230BEF1080F04BF01238DF84C3001D08DF84C40BEF10C0F6E
:2061A0000AD0737903F00303012B0CD140F00C0073898DF8400004E04D780B78891C03EB5B
:2061C0000523ADF84430430911D24D780B78891C03EB0523ADF846300B784D78891C03EB56
:2061E0000523ADF8483011F8013B8DF8433011F8013B30F07F058DF855301ED00B7833F096
:2062000003058DF8413040F0A88103F0030EBEF1030F00F0A28113F0030F01F101010ED068
:2062200011F8013B00F00305022D8DF8573004BF11F8013B8DF8583001E08DF84140149145
:20624000A1EB0C017F1AFFB2BA42C0F28681D21B8DF85470D1B28DF84D100F4300F08181C7
:20626000C10907D370891BF06DFB002840F079819DF8400000F00C012746091F08BF012766
:20628000820932D301221E9279B3B2891FF03CFF904202D1F08D000A0DD21FF035FF9042CA
:2062A00021D0F18D080A38BF101C07D39DF8400000F003032DE07089ADF85A2080461FF09B
:2062C00023FFBDF85A10884205D0404619F041FC002800F04681A448026810A940469047C7
:2062E000002840F03E819DF84000F18D00F003030A0A0ED2C2090CD39DF8412012F0030F96
:2063000007D100F00C020C2A03D0082A1CBF01221D92DFF86082022B00F00081012B00F04C
:20632000CE8010F0030F40F01C81904890F82F00012803D1B579002D00F013819DF85400DC
:2063400002221A900B0A9DF84240BDF846B0BDF848A09DF855E09DF857C0DDF850908DF84B
:206360006420B0899DF84350ADF85C0075D2454605F11C021468002F52D11D9F17B110A946
:2063800013F09FFA7A484178022936D10078012833D1B07C002830D070891BF0D3FA0228C0
:2063A00001D0707948B37449B2893C208B1F33F8064F944204D19C78F77CBC4200F0D18039
:2063C000401EF4D16878891F3C234FF6FE7731F8064FA74202D05B1EF9D1C2E00A80F27CE3
:2063E0008A700C228A8004211BF0ECFA28B9687804214FF4FA721FF0F7FFF07C1E9F009002
:206400001C9D0197594C0295B07C1B9B0390B4F8482017A910A811F087FCA2E0148302004F
:20642000307C002C8DF8560000F09B801FF06CFEBDF85C20904240F0948030791E9F0090E8
:206440001C9D01971B9A02951D9B039196F8300010A9049017A8A04783E08DF820208DF8F5
:2064600022508DF82340ADF830107089ADF818008DF835E0ADF826B0ADF828A0CDF82C9024
:206480001A9B8DF836C0327CADF82A3035798DF83220B47C8DF8335096F832108DF8344099
:2064A000324F8DF83810B7F84800ADF8240096F830708DF8377006A805F082FD51E01D9F65
:2064C000B58937B1080A04D2284610A913F0F9F9B5899DF85400B6791030C0B21EF0D6FAAC
:2064E000071C3ED07D81022038703E737C709DF854203A7207F110057D609DF84000800909
:2065000028BF01247C72149978681FF00BF945466D1C287839461AF079F822E09DF841005B
:20652000B189454624352B6810F0030F10D110A807901248ADF8181006A91DF023F980B138
:20654000062141730068407B21461AF0FFFD08E03BB110A82246984703E08DF84D408DF883
:2065600054401FB0BDE8F08FBC610020BC5900209C5D00208C5F0020341D00204304020044
:206580002DE9F04F4FF0FF084146ADF14C0D0E910F914FF0000910914E46089609960A9649
:2065A000AD4C0B9604F1300B0C96E0680D96494611919EE0E068710306AA04231FF08AFEAB
:2065C000119903AA30461EF005FE02AA304601211EF000FE3046022101AA1EF0FBFD0698A5
:2065E00000F0FF0028709DF81900069F6870C7F30140E8709DF80E30AB702878FF2834D0DD
:20660000BDF80C70FE2830D04FF6FF70B8422AD107A81BF0C9FDE06871034FF088524FF4E2
:2066200000531FF057FEB8484FF4005750F8041D3F1FBFB2B1F1FF3F07F1885201D1032F1B
:20664000F4D810684FF0010A514600F0FF03FF2B18BF8A46491C000A0529F6DB10600798D5
:206660001FF048F85744EF8001E01020E8809DF80A00BDF8087028719DF806302F81BDF8B3
:2066800004206B7129786A81E068FF292AD0FE2922D07E291AD07C2912D078290BD07029BE
:2066A00004D00D99491CC9B20D9120E00C99491CC9B20C911BE00B99491CC9B20B9116E0AF
:2066C0000A990F96491CC9B20A9110E009990E96491CC9B209910AE00899B046491CC9B2E6
:2066E000089104E009F1010710965FFA87F9761CF6B2E578B54200F31F810D9F002F38D197
:206700000898022835DA0C98022832DA099802282FDA4D452BD00C98C0B90898A0B90B98AC
:206720000A99084325D01DF0D3FD854219DCB9F1000F14D094F83200FE211CF043FEE578B9
:206740000120DDF8408015E0012013E0089860B9B9F1000F07D11DF0BBFD854201DC0620A1
:2067600008E0032006E00220EBE7022002E0119800E004200028A07000F0C880401E49D09C
:20678000401E00F0A980401E06D0401E00F09780801E00F093800AE11DF09AFD05460C2042
:2067A00084F83C5015FB00B0817E84F83D10C07E84F83E000EF0F6F9E2782D1895FBF2F053
:2067C00050432D1AE8B284F83200401C90FBF2F15143401A84F831007C201BF091FFFF28D4
:2067E00010D17E201BF08CFFFF280BD1FF201BF087FFFF2806D178201BF082FFFF2808BFC1
:2068000094F8310084F833000C2110FB01B0808BE0868BE00F9F08F1010090FBF5F184F8B2
:2068200032806943FF2FA0EB0100C1B284F8311014D10E98FF2804D10C200E9111FB00B002
:2068400004E00146880000EBC100584484F83310808BE086ABE0C046485B00203A46D0B2B7
:20686000910084F8330001EBC2015944898B1729E18640F29C80C91F01AA89B212F008F9B2
:206880009DF80F00C0083BD3119F0097BDF81220E18E94F833000323891AC91F01AA89B28B
:2068A00009F02AFC002840F08280BDF8101000297DD09DF8140019F083FE78E0FEE7119EF5
:2068C000B54223DD304610F00DFA6178E578761CF6B201436170F3E708F1010084F83280BD
:2068E00090FBF5F16943401A84F831005FFA88F010F0F8F96070FE215FFA88F01CF062FD87
:20690000119802F0E9F852E00020001111986D1E84F831000C2184F8325010FB01B184F853
:206920003300898BE1867E211CF04CFD94F83200FE211CF047FD3AE00C2116FB01B506AACA
